{
  "_format": "hh-sol-artifact-1",
  "contractName": "Solvecoin",
  "sourceName": "contracts/Solvecoin.sol",
  "abi": [
    {
      "inputs": [
        {
          "internalType": "uint256",
          "name": "initialSupply",
          "type": "uint256"
        }
      ],
      "stateMutability": "nonpayable",
      "type": "constructor"
    },
    {
      "inputs": [
        {
          "internalType": "address",
          "name": "spender",
          "type": "address"
        },
        {
          "internalType": "uint256",
          "name": "allowance",
          "type": "uint256"
        },
        {
          "internalType": "uint256",
          "name": "needed",
          "type": "uint256"
        }
      ],
      "name": "ERC20InsufficientAllowance",
      "type": "error"
    },
    {
      "inputs": [
        {
          "internalType": "address",
          "name": "sender",
          "type": "address"
        },
        {
          "internalType": "uint256",
          "name": "balance",
          "type": "uint256"
        },
        {
          "internalType": "uint256",
          "name": "needed",
          "type": "uint256"
        }
      ],
      "name": "ERC20InsufficientBalance",
      "type": "error"
    },
    {
      "inputs": [
        {
          "internalType": "address",
          "name": "approver",
          "type": "address"
        }
      ],
      "name": "ERC20InvalidApprover",
      "type": "error"
    },
    {
      "inputs": [
        {
          "internalType": "address",
          "name": "receiver",
          "type": "address"
        }
      ],
      "name": "ERC20InvalidReceiver",
      "type": "error"
    },
    {
      "inputs": [
        {
          "internalType": "address",
          "name": "sender",
          "type": "address"
        }
      ],
      "name": "ERC20InvalidSender",
      "type": "error"
    },
    {
      "inputs": [
        {
          "internalType": "address",
          "name": "spender",
          "type": "address"
        }
      ],
      "name": "ERC20InvalidSpender",
      "type": "error"
    },
    {
      "inputs": [
        {
          "internalType": "address",
          "name": "owner",
          "type": "address"
        }
      ],
      "name": "OwnableInvalidOwner",
      "type": "error"
    },
    {
      "inputs": [
        {
          "internalType": "address",
          "name": "account",
          "type": "address"
        }
      ],
      "name": "OwnableUnauthorizedAccount",
      "type": "error"
    },
    {
      "anonymous": false,
      "inputs": [
        {
          "indexed": true,
          "internalType": "address",
          "name": "owner",
          "type": "address"
        },
        {
          "indexed": true,
          "internalType": "address",
          "name": "spender",
          "type": "address"
        },
        {
          "indexed": false,
          "internalType": "uint256",
          "name": "value",
          "type": "uint256"
        }
      ],
      "name": "Approval",
      "type": "event"
    },
    {
      "anonymous": false,
      "inputs": [
        {
          "indexed": true,
          "internalType": "address",
          "name": "previousOwner",
          "type": "address"
        },
        {
          "indexed": true,
          "internalType": "address",
          "name": "newOwner",
          "type": "address"
        }
      ],
      "name": "OwnershipTransferred",
      "type": "event"
    },
    {
      "anonymous": false,
      "inputs": [
        {
          "indexed": true,
          "internalType": "address",
          "name": "solver",
          "type": "address"
        },
        {
          "indexed": false,
          "internalType": "uint256",
          "name": "amount",
          "type": "uint256"
        }
      ],
      "name": "TokensRewarded",
      "type": "event"
    },
    {
      "anonymous": false,
      "inputs": [
        {
          "indexed": true,
          "internalType": "address",
          "name": "from",
          "type": "address"
        },
        {
          "indexed": true,
          "internalType": "address",
          "name": "to",
          "type": "address"
        },
        {
          "indexed": false,
          "internalType": "uint256",
          "name": "value",
          "type": "uint256"
        }
      ],
      "name": "Transfer",
      "type": "event"
    },
    {
      "inputs": [
        {
          "internalType": "address",
          "name": "owner",
          "type": "address"
        },
        {
          "internalType": "address",
          "name": "spender",
          "type": "address"
        }
      ],
      "name": "allowance",
      "outputs": [
        {
          "internalType": "uint256",
          "name": "",
          "type": "uint256"
        }
      ],
      "stateMutability": "view",
      "type": "function"
    },
    {
      "inputs": [
        {
          "internalType": "address",
          "name": "spender",
          "type": "address"
        },
        {
          "internalType": "uint256",
          "name": "value",
          "type": "uint256"
        }
      ],
      "name": "approve",
      "outputs": [
        {
          "internalType": "bool",
          "name": "",
          "type": "bool"
        }
      ],
      "stateMutability": "nonpayable",
      "type": "function"
    },
    {
      "inputs": [
        {
          "internalType": "address",
          "name": "account",
          "type": "address"
        }
      ],
      "name": "balanceOf",
      "outputs": [
        {
          "internalType": "uint256",
          "name": "",
          "type": "uint256"
        }
      ],
      "stateMutability": "view",
      "type": "function"
    },
    {
      "inputs": [],
      "name": "decimals",
      "outputs": [
        {
          "internalType": "uint8",
          "name": "",
          "type": "uint8"
        }
      ],
      "stateMutability": "view",
      "type": "function"
    },
    {
      "inputs": [
        {
          "internalType": "uint256",
          "name": "amount",
          "type": "uint256"
        }
      ],
      "name": "mintTokens",
      "outputs": [],
      "stateMutability": "nonpayable",
      "type": "function"
    },
    {
      "inputs": [],
      "name": "name",
      "outputs": [
        {
          "internalType": "string",
          "name": "",
          "type": "string"
        }
      ],
      "stateMutability": "view",
      "type": "function"
    },
    {
      "inputs": [],
      "name": "owner",
      "outputs": [
        {
          "internalType": "address",
          "name": "",
          "type": "address"
        }
      ],
      "stateMutability": "view",
      "type": "function"
    },
    {
      "inputs": [],
      "name": "renounceOwnership",
      "outputs": [],
      "stateMutability": "nonpayable",
      "type": "function"
    },
    {
      "inputs": [
        {
          "internalType": "address",
          "name": "solver",
          "type": "address"
        },
        {
          "internalType": "uint256",
          "name": "amount",
          "type": "uint256"
        }
      ],
      "name": "rewardSolver",
      "outputs": [],
      "stateMutability": "nonpayable",
      "type": "function"
    },
    {
      "inputs": [],
      "name": "symbol",
      "outputs": [
        {
          "internalType": "string",
          "name": "",
          "type": "string"
        }
      ],
      "stateMutability": "view",
      "type": "function"
    },
    {
      "inputs": [],
      "name": "totalSupply",
      "outputs": [
        {
          "internalType": "uint256",
          "name": "",
          "type": "uint256"
        }
      ],
      "stateMutability": "view",
      "type": "function"
    },
    {
      "inputs": [
        {
          "internalType": "address",
          "name": "to",
          "type": "address"
        },
        {
          "internalType": "uint256",
          "name": "value",
          "type": "uint256"
        }
      ],
      "name": "transfer",
      "outputs": [
        {
          "internalType": "bool",
          "name": "",
          "type": "bool"
        }
      ],
      "stateMutability": "nonpayable",
      "type": "function"
    },
    {
      "inputs": [
        {
          "internalType": "address",
          "name": "from",
          "type": "address"
        },
        {
          "internalType": "address",
          "name": "to",
          "type": "address"
        },
        {
          "internalType": "uint256",
          "name": "value",
          "type": "uint256"
        }
      ],
      "name": "transferFrom",
      "outputs": [
        {
          "internalType": "bool",
          "name": "",
          "type": "bool"
        }
      ],
      "stateMutability": "nonpayable",
      "type": "function"
    },
    {
      "inputs": [
        {
          "internalType": "address",
          "name": "newOwner",
          "type": "address"
        }
      ],
      "name": "transferOwnership",
      "outputs": [],
      "stateMutability": "nonpayable",
      "type": "function"
    }
  ],
  "bytecode": "0x608060405234801561001057600080fd5b5060405161111d38038061111d83398101604081905261002f916102a3565b336040518060400160405280600981526020016829b7b63b32b1b7b4b760b91b81525060405180604001604052806005815260200164534f4c564560d81b815250816003908161007f919061035b565b50600461008c828261035b565b5050506001600160a01b0381166100be57604051631e4fbdf760e01b8152600060048201526024015b60405180910390fd5b6100c7816100ed565b506100e7336100d86012600a610518565b6100e2908461052e565b61013f565b50610558565b600580546001600160a01b038381166001600160a01b0319831681179093556040519116919082907f8be0079c531659141344cd1fd0a4f28419497f9722a3daafe3b4186f6b6457e090600090a35050565b6001600160a01b0382166101695760405163ec442f0560e01b8152600060048201526024016100b5565b61017560008383610179565b5050565b6001600160a01b0383166101a45780600260008282546101999190610545565b909155506102169050565b6001600160a01b038316600090815260208190526040902054818110156101f75760405163391434e360e21b81526001600160a01b038516600482015260248101829052604481018390526064016100b5565b6001600160a01b03841660009081526020819052604090209082900390555b6001600160a01b03821661023257600280548290039055610251565b6001600160a01b03821660009081526020819052604090208054820190555b816001600160a01b0316836001600160a01b03167fddf252ad1be2c89b69c2b068fc378daa952ba7f163c4a11628f55a4df523b3ef8360405161029691815260200190565b60405180910390a3505050565b6000602082840312156102b557600080fd5b5051919050565b634e487b7160e01b600052604160045260246000fd5b600181811c908216806102e657607f821691505b60208210810361030657634e487b7160e01b600052602260045260246000fd5b50919050565b601f82111561035657806000526020600020601f840160051c810160208510156103335750805b601f840160051c820191505b81811015610353576000815560010161033f565b50505b505050565b81516001600160401b03811115610374576103746102bc565b6103888161038284546102d2565b8461030c565b6020601f8211600181146103bc57600083156103a45750848201515b600019600385901b1c1916600184901b178455610353565b600084815260208120601f198516915b828110156103ec57878501518255602094850194600190920191016103cc565b508482101561040a5786840151600019600387901b60f8161c191681555b50505050600190811b01905550565b634e487b7160e01b600052601160045260246000fd5b6001815b600184111561046a5780850481111561044e5761044e610419565b600184161561045c57908102905b60019390931c928002610433565b935093915050565b60008261048157506001610512565b8161048e57506000610512565b81600181146104a457600281146104ae576104ca565b6001915050610512565b60ff8411156104bf576104bf610419565b50506001821b610512565b5060208310610133831016604e8410600b84101617156104ed575081810a610512565b6104fa600019848461042f565b806000190482111561050e5761050e610419565b0290505b92915050565b600061052760ff841683610472565b9392505050565b808202811582820484141761051257610512610419565b8082018082111561051257610512610419565b610bb6806105676000396000f3fe608060405234801561001057600080fd5b50600436106100ea5760003560e01c80638da5cb5b1161008c578063a9059cbb11610066578063a9059cbb146101cd578063cd4eb5f7146101e0578063dd62ed3e146101f3578063f2fde38b1461022c57600080fd5b80638da5cb5b1461019757806395d89b41146101b257806397304ced146101ba57600080fd5b806323b872dd116100c857806323b872dd14610142578063313ce5671461015557806370a0823114610164578063715018a61461018d57600080fd5b806306fdde03146100ef578063095ea7b31461010d57806318160ddd14610130575b600080fd5b6100f761023f565b60405161010491906108d1565b60405180910390f35b61012061011b36600461093b565b6102d1565b6040519015158152602001610104565b6002545b604051908152602001610104565b610120610150366004610965565b6102eb565b60405160128152602001610104565b6101346101723660046109a2565b6001600160a01b031660009081526020819052604090205490565b61019561030f565b005b6005546040516001600160a01b039091168152602001610104565b6100f7610323565b6101956101c83660046109c4565b610332565b6101206101db36600461093b565b6103bf565b6101956101ee36600461093b565b6103cd565b6101346102013660046109dd565b6001600160a01b03918216600090815260016020908152604080832093909416825291909152205490565b61019561023a3660046109a2565b6104ee565b60606003805461024e90610a10565b80601f016020809104026020016040519081016040528092919081815260200182805461027a90610a10565b80156102c75780601f1061029c576101008083540402835291602001916102c7565b820191906000526020600020905b8154815290600101906020018083116102aa57829003601f168201915b5050505050905090565b6000336102df818585610529565b60019150505b92915050565b6000336102f985828561053b565b6103048585856105ba565b506001949350505050565b610317610619565b6103216000610646565b565b60606004805461024e90610a10565b61033a610619565b6000811161039d5760405162461bcd60e51b815260206004820152602560248201527f4d696e7420616d6f756e74206d7573742062652067726561746572207468616e604482015264207a65726f60d81b60648201526084015b60405180910390fd5b6103bc336103ad6012600a610b47565b6103b79084610b56565b610698565b50565b6000336102df8185856105ba565b6103d5610619565b6001600160a01b03821661042b5760405162461bcd60e51b815260206004820152601a60248201527f43616e6e6f7420726577617264207a65726f20616464726573730000000000006044820152606401610394565b6000811161048b5760405162461bcd60e51b815260206004820152602760248201527f52657761726420616d6f756e74206d7573742062652067726561746572207468604482015266616e207a65726f60c81b6064820152608401610394565b6104a76104a06005546001600160a01b031690565b83836105ba565b816001600160a01b03167f0d3ecba324ef5a283bcbd5d1a966cab18661432ab3575740c588f7a0144b0dfa826040516104e291815260200190565b60405180910390a25050565b6104f6610619565b6001600160a01b03811661052057604051631e4fbdf760e01b815260006004820152602401610394565b6103bc81610646565b61053683838360016106d2565b505050565b6001600160a01b038381166000908152600160209081526040808320938616835292905220546000198110156105b457818110156105a557604051637dc7a0d960e11b81526001600160a01b03841660048201526024810182905260448101839052606401610394565b6105b4848484840360006106d2565b50505050565b6001600160a01b0383166105e457604051634b637e8f60e11b815260006004820152602401610394565b6001600160a01b03821661060e5760405163ec442f0560e01b815260006004820152602401610394565b6105368383836107a7565b6005546001600160a01b031633146103215760405163118cdaa760e01b8152336004820152602401610394565b600580546001600160a01b038381166001600160a01b0319831681179093556040519116919082907f8be0079c531659141344cd1fd0a4f28419497f9722a3daafe3b4186f6b6457e090600090a35050565b6001600160a01b0382166106c25760405163ec442f0560e01b815260006004820152602401610394565b6106ce600083836107a7565b5050565b6001600160a01b0384166106fc5760405163e602df0560e01b815260006004820152602401610394565b6001600160a01b03831661072657604051634a1406b160e11b815260006004820152602401610394565b6001600160a01b03808516600090815260016020908152604080832093871683529290522082905580156105b457826001600160a01b0316846001600160a01b03167f8c5be1e5ebec7d5bd14f71427d1e84f3dd0314c0f7b2291e5b200ac8c7c3b9258460405161079991815260200190565b60405180910390a350505050565b6001600160a01b0383166107d25780600260008282546107c79190610b6d565b909155506108449050565b6001600160a01b038316600090815260208190526040902054818110156108255760405163391434e360e21b81526001600160a01b03851660048201526024810182905260448101839052606401610394565b6001600160a01b03841660009081526020819052604090209082900390555b6001600160a01b0382166108605760028054829003905561087f565b6001600160a01b03821660009081526020819052604090208054820190555b816001600160a01b0316836001600160a01b03167fddf252ad1be2c89b69c2b068fc378daa952ba7f163c4a11628f55a4df523b3ef836040516108c491815260200190565b60405180910390a3505050565b602081526000825180602084015260005b818110156108ff57602081860181015160408684010152016108e2565b506000604082850101526040601f19601f83011684010191505092915050565b80356001600160a01b038116811461093657600080fd5b919050565b6000806040838503121561094e57600080fd5b6109578361091f565b946020939093013593505050565b60008060006060848603121561097a57600080fd5b6109838461091f565b92506109916020850161091f565b929592945050506040919091013590565b6000602082840312156109b457600080fd5b6109bd8261091f565b9392505050565b6000602082840312156109d657600080fd5b5035919050565b600080604083850312156109f057600080fd5b6109f98361091f565b9150610a076020840161091f565b90509250929050565b600181811c90821680610a2457607f821691505b602082108103610a4457634e487b7160e01b600052602260045260246000fd5b50919050565b634e487b7160e01b600052601160045260246000fd5b6001815b6001841115610a9b57808504811115610a7f57610a7f610a4a565b6001841615610a8d57908102905b60019390931c928002610a64565b935093915050565b600082610ab2575060016102e5565b81610abf575060006102e5565b8160018114610ad55760028114610adf57610afb565b60019150506102e5565b60ff841115610af057610af0610a4a565b50506001821b6102e5565b5060208310610133831016604e8410600b8410161715610b1e575081810a6102e5565b610b2b6000198484610a60565b8060001904821115610b3f57610b3f610a4a565b029392505050565b60006109bd60ff841683610aa3565b80820281158282048414176102e5576102e5610a4a565b808201808211156102e5576102e5610a4a56fea264697066735822122051640d76dfe841f41c76359ba7e6bb5db98448e6bfe46ca65ca36c674961c7c864736f6c634300081c0033",
  "linkReferences": {},
  "deployedLinkReferences": {}
}